:100000000C9462000C948A000C948A000C948A0070
:100010000C948A000C948A000C948A000C948A0038
:100020000C948A000C948A000C948A000C94DA03D5
:100030000C948A000C948A000C948A000C948A0018
:100040000C9490030C948A000C948A000C948A00FF
:100050000C948A000C948A000C948A000C948A00F8
:100060000C948A000C948A000000000024002700F1
:100070002A0000000000250028002B0000000000DE
:1000800023002600290004040404040404040202DA
:100090000202020203030303030301020408102007
:1000A0004080010204081020010204081020000012
:1000B0000008000201000003040700000000000027
:1000C0000000EA0511241FBECFEFD8E0DEBFCDBF90
:1000D00011E0A0E0B1E0E2E5FDE002C005900D9284
:1000E000A63BB107D9F722E0A6EBB1E001C01D9213
:1000F000A030B207E1F710E0C2E6D0E004C02197DB
:10010000FE010E94A106C136D107C9F70E949604DC
:100110000C94A7060C9400008F929F92AF92BF920E
:10012000FF920F931F93CF93DF93F090E5012BE0A5
:100130002F1508F44CC02091E70108E512E0021BDE
:10014000110927FD1395000F111F000F111F20919A
:10015000E601C8E8D0E0C21BD10927FDD395CC0F3A
:10016000DD1FCC0FDD1F4E010D2E000CAA08BB08B1
:100170009801012E000C440B550B281939094A0926
:100180005B09DC010E945C0624EB30E040E050E0BB
:100190000E943206820E931EA41EB51E8C169D066A
:1001A0002CF0E801801691060CF4E4012297CC0FA4
:1001B000DD1F2FB7F8948F2D90E0FC01EE0FFF1F8D
:1001C000E80FF91FEF53FE4FD283C1832FBFDF919A
:1001D000CF911F910F91FF90BF90AF909F908F9004
:1001E0000895833081F028F4813099F08230A9F0AD
:1001F00008958730A9F08830C9F08430B1F4809137
:1002000080008F7D03C0809180008F778093800075
:10021000089584B58F7784BD089584B58F7DFBCF15
:100220008091B0008F778093B00008958091B000E6
:100230008F7DF9CFCF93DF93282F30E0F901E2557E
:10024000FF4F8491F901E656FF4FD491F901EA5727
:10025000FF4FC491CC23A1F081110E94F100EC2F3B
:10026000F0E0EE0FFF1FE458FF4FA591B491EC9121
:10027000ED2381E090E009F480E0DF91CF910895D3
:1002800080E090E0FACF1F93CF93DF93282F30E0E8
:10029000F901E255FF4F8491F901E656FF4FD491E1
:1002A000F901EA57FF4FC491CC23A9F0162F811111
:1002B0000E94F100EC2FF0E0EE0FFF1FEE58FF4F11
:1002C000A591B4918FB7F894EC91111108C0D09515
:1002D000DE23DC938FBFDF91CF911F910895DE2B3A
:1002E000F8CFCF93DF9390E0FC01E656FF4F2491C7
:1002F0008A579F4FFC0184918823D1F090E0880FAA
:10030000991FFC01E859FF4FA591B491FC01EE58EB
:10031000FF4FC591D49161110EC09FB7F8948C9195
:10032000E22FE0958E238C932881E223E8839FBF00
:10033000DF91CF9108958FB7F894EC91E22BEC9375
:100340008FBFF6CF3FB7F8948091BD019091BE0169
:10035000A091BF01B091C00126B5A89B05C02F3F59
:1003600019F00196A11DB11D3FBFBA2FA92F982FDB
:100370008827BC01CD01620F711D811D911D42E0D6
:10038000660F771F881F991F4A95D1F708958F929E
:100390009F92AF92BF92CF92DF92EF92FF924B016A
:1003A0005C010E94A2016B017C010E94A2016C19F8
:1003B0007D098E099F09683E734081059105A8F368
:1003C00021E0821A9108A108B10888EEC80E83E0E6
:1003D000D81EE11CF11C81149104A104B10429F779
:1003E000FF90EF90DF90CF90BF90AF909F908F9055
:1003F0000895AF92BF92CF92DF92EF92FF920F9348
:100400001F93CF93DF936C017B018B01040F151FAA
:10041000EB015E01AE18BF08C017D10759F0699112
:10042000D601ED91FC910190F081E02DC601099576
:10043000892B79F7C501DF91CF911F910F91FF9023
:10044000EF90DF90CF90BF90AF900895089590E027
:1004500080E00895FC0101900020E9F73197AF0199
:10046000481B590BBC0188EE91E00C94F901CF9325
:10047000DF93EC0160E08E810E94430161E08E8198
:100480000E94430160E08E810E9443018BE891E06D
:100490000197F1F7DF91CF910895CF92DF92EF921C
:1004A000FF920F931F93CF93DF936C017C0187E042
:1004B000E80EF11CD0E0C0E0062F10E0B8010C2ED1
:1004C00002C0759567950A94E2F76170F701819112
:1004D0007F010E9443012196C430D10579F7C601FE
:1004E000DF91CF911F910F91FF90EF90DF90CF9010
:1004F0000C943702CF92DF92EF92FF920F931F93EB
:10050000CF93DF93EC01F62E642F8C810E94430180
:100510008D818F3F19F060E00E9443010F2D10E0A4
:100520008F8584FF25C06E0187E0C80ED11CF12C99
:10053000E12CB8010E2C02C0759567950A94E2F77C
:100540006170F60181916F010E944301FFEFEF1A84
:10055000FF0A88E0E816F10461F7CE01DF91CF9140
:100560001F910F91FF90EF90DF90CF900C94370286
:10057000B80184E0759567958A95E1F7CE010E94F0
:100580004D026F2DCE01DF91CF911F910F91FF9002
:10059000EF90DF90CF900C944D0240E0682F88EEF2
:1005A00091E00C947A0281E00E94CD028BE39FE1FE
:1005B0000197F1F70895CF93DF93823029F490915A
:1005C000F70198609093F7018093FB011092FC0172
:1005D00080E48093FD0180E18093FE0180E58093BB
:1005E000FF0161E08091EC010E9471018091ED01B9
:1005F0008F3F19F061E00E94710161E08091EE018E
:100600000E947101C8EED1E09E01285E31408091C8
:10061000F70184FD0BC084E090E02196281739078C
:1006200044F461E08E810E947101EECF88E090E099
:10063000F4CF8BE39DE00197F1F760E08091EC014E
:100640000E94430160E08091EE010E94430180918D
:10065000ED018F3F19F060E00E9443018091F701A6
:1006600084FD34C063E088EE91E00E944D02CBE44B
:10067000D6E4CE010197F1F763E088EE91E00E94A5
:100680004D022197F1F763E088EE91E00E944D0260
:1006900083E592E00197F1F762E088EE91E00E9435
:1006A0004D028091F70180620E94CD0284E0809328
:1006B000F8018CE00E94CD020E94D30282E0809378
:1006C000F90186E0DF91CF910C94CD0280620E9407
:1006D000CD028BE496E40197F1F78091F7018062F7
:1006E0000E94CD0283E592E00197F1F78091F70136
:1006F00080620E94CD02D5CF9091FB01891710F046
:100700008FEF890FE82FF0E0E851FE4F8489806871
:100710000C94CD0241E00E947A0281E090E00895BD
:100720001F920F920FB60F9211242F933F938F9326
:100730009F93AF93BF938091B9019091BA01A0911B
:10074000BB01B091BC013091B80123E0230F2D37DC
:1007500058F50196A11DB11D2093B8018093B901F0
:100760009093BA01A093BB01B093BC018091BD01ED
:100770009091BE01A091BF01B091C0010196A11D51
:10078000B11D8093BD019093BE01A093BF01B093B2
:10079000C001BF91AF919F918F913F912F910F9089
:1007A0000FBE0F901F90189526E8230F0296A11DEB
:1007B000B11DD2CF1F920F920FB60F9211242F931B
:1007C0003F934F935F936F937F938F939F93AF93D9
:1007D000BF93CF93DF93EF93FF938091B701C091C5
:1007E000B601D0E087FF24C01092850010928400EB
:1007F0008091B7018F5F8093B7018091B701082E78
:10080000000C990B8C179D0724F48091B7018C3054
:10081000C4F18091840090918500049680349C49B5
:1008200008F47AC08091840090918500049676C087
:100830008091B701082E000C990B8C179D07C4F608
:10084000E091B7018E2FEE0F990BFC01EE0FFF1F09
:10085000E80FF91FEF53FE4F808186FFC9CFE0916B
:10086000B7018E2FEE0F990BFC01EE0FFF1FE80F63
:10087000F91FEF53FE4F808160E08F730E944301A8
:10088000B7CF2091840030918500E091B7018E2F81
:10089000EE0F990BFC01EE0FFF1FE80FF91FEF534E
:1008A000FE4F81819281820F931F909389008093E4
:1008B0008800E091B7018E2FEE0F990BFC01EE0F2F
:1008C000FF1FE80FF91FEF53FE4F808186FF11C015
:1008D000E091B7018E2FEE0F990BFC01EE0FFF1F79
:1008E000E80FF91FEF53FE4F808161E08F730E9484
:1008F0004301FF91EF91DF91CF91BF91AF919F9114
:100900008F917F916F915F914F913F912F910F90B8
:100910000FBE0F901F90189580E49CE9909389007A
:10092000809388008FEF8093B701E3CF789484B5EC
:10093000826084BD84B5816084BD85B5826085BDDB
:1009400085B5816085BD80916E00816080936E0069
:10095000109281008091810082608093810080915B
:10096000810081608093810080918000816080930C
:1009700080008091B10084608093B1008091B000CC
:1009800081608093B00080917A00846080937A00C7
:1009900080917A00826080937A0080917A008160F1
:1009A00080937A0080917A00806880937A00109218
:1009B000C10082E00E94DB028091E5018C3008F0EA
:1009C00051C061E089E00E9471018091E501282F0A
:1009D00030E0F901EE0FFF1FE20FF31FEF53FE4F60
:1009E0009081907C996090831092E6011092E701CB
:1009F0002CE0622F0E949506829FB001112430E006
:100A000020E0AB01420F531FFA01EE0FFF1FE40F6E
:100A1000F51FEF53FE4F908196FD16C02F5F3F4F9D
:100A20002C30310571F781110FC01092800082E0E7
:100A3000809381001092850010928400B19A809179
:100A40006F00826080936F00E091E5018E2F90E04F
:100A5000FC01EE0FFF1FE80FF91FEF53FE4F8081DF
:100A60008064808360E082E00E94710160E083E046
:100A70000E94710161E08EE00E94710161E08FE0EF
:100A80000E9471018AE590E00E948C008CE091E068
:100A90000E942A0260ED77E080E090E00E94C701AA
:100AA0000E94D302C0E0D0E061E08EE00E944301EA
:100AB00060E08FE00E94430180E00E947C038BE1B4
:100AC00091E00E942A0281E00E947C038CE291E086
:100AD0000E942A0282E00E941A01019709F063C075
:100AE00060E08EE00E94430161E08FE00E944301DC
:100AF0000E94D30280E00E947C038DE391E00E947B
:100B00002A026CED75E080E090E00E94C7010E942F
:100B1000D30283E00E941A01019709F04AC080E0E5
:100B20000E947C038DE491E00E942A0281E00E94F1
:100B30007C038DE591E00E942A0284EB90E00E9404
:100B40008C0064EC79E080E090E00E94C7010E9494
:100B5000D3028EE791E00E942A0281E00E947C038A
:100B60008DE891E00E942A0260ED77E080E090E05D
:100B70000E94C7010E94D3028CE991E00E942A02E0
:100B800081E00E947C038AEA91E00E942A028AE5C1
:100B900090E00E948C006CED75E080E090E00E9497
:100BA000C7010E94D302209709F47ECF0E94000063
:100BB0007BCF80E00E947C038EE691E00E942A02B7
:100BC00081E00E947C038DE591E00E942A0290E082
:100BD00080E0B5CFCF931092EB011092EA0184E050
:100BE00091E09093E9018093E8018CE08093EC011F
:100BF000CFEFC093ED018BE08093EE0184E0809312
:100C0000EF0185E08093F00186E08093F10187E0B9
:100C10008093F2011092F3011092F4011092F50109
:100C20001092F6011092F70181E00E94DB028091A0
:100C3000B6018C30A0F491E0980F9093B6018093A8
:100C4000E50190E0FC01EE0FFF1FE80FF91FEF53E5
:100C5000FE4F88EB9BE092838183CF910895C093F0
:100C6000E501FBCF052E97FB1EF400940E94490678
:100C700057FD07D00E94640607FC03D04EF40C9485
:100C8000490650954095309521953F4F4F4F5F4F06
:100C9000089590958095709561957F4F8F4F9F4FE8
:100CA00008950E948606A59F900DB49F900DA49F65
:100CB000800D911D11240895B7FF0C9451060E94D8
:100CC0005106821B930B0895A1E21A2EAA1BBB1B8F
:100CD000FD010DC0AA1FBB1FEE1FFF1FA217B30708
:100CE000E407F50720F0A21BB30BE40BF50B661F1E
:100CF000771F881F991F1A9469F7609570958095E2
:100D000090959B01AC01BD01CF010895A29FB00158
:100D1000B39FC001A39F700D811D1124911DB29F2F
:100D2000700D811D1124911D0895991B79E004C057
:100D3000991F961708F0961B881F7A95C9F780951A
:100D40000895EE0FFF1F0590F491E02D0994F8949B
:020D5000FFCFD3
:100D5200000000008A03F901270226025369737416
:100D6200656D204261736C616469004174696B2036
:100D720042656B6C656E69796F7220002D2D2D2D89
:100D82002D2D2D2D2D2D2D2D2D2D2D2D003E3E3E8B
:100D9200204154494B2047454C4449210054757227
:100DA2003A204D4554414C202020202000417972A8
:100DB2006973746972696C69796F722E2E00547549
:100DC200723A20504C415354494B20202000497321
:100DD2006C656D204261736172696C690048617A69
:100DE2006E657965204174696C6469005369737436
:100DF200656D2048617A69726100446F6E75796F22
:060E0200722E2E2E0000EE
:00000001FF
